{
  "contractName": "VoteContract",
  "abi": [
    {
      "inputs": [],
      "stateMutability": "nonpayable",
      "type": "constructor"
    },
    {
      "inputs": [
        {
          "internalType": "address",
          "name": "",
          "type": "address"
        }
      ],
      "name": "hasVoted",
      "outputs": [
        {
          "internalType": "bool",
          "name": "",
          "type": "bool"
        }
      ],
      "stateMutability": "view",
      "type": "function",
      "constant": true
    },
    {
      "inputs": [],
      "name": "owner",
      "outputs": [
        {
          "internalType": "address",
          "name": "",
          "type": "address"
        }
      ],
      "stateMutability": "view",
      "type": "function",
      "constant": true
    },
    {
      "inputs": [
        {
          "internalType": "string",
          "name": "",
          "type": "string"
        }
      ],
      "name": "votes",
      "outputs": [
        {
          "internalType": "uint256",
          "name": "",
          "type": "uint256"
        }
      ],
      "stateMutability": "view",
      "type": "function",
      "constant": true
    },
    {
      "inputs": [
        {
          "internalType": "string",
          "name": "candidate",
          "type": "string"
        }
      ],
      "name": "vote",
      "outputs": [],
      "stateMutability": "nonpayable",
      "type": "function"
    },
    {
      "inputs": [
        {
          "internalType": "string",
          "name": "candidate",
          "type": "string"
        }
      ],
      "name": "getVotes",
      "outputs": [
        {
          "internalType": "uint256",
          "name": "",
          "type": "uint256"
        }
      ],
      "stateMutability": "view",
      "type": "function",
      "constant": true
    },
    {
      "inputs": [],
      "name": "getCreator",
      "outputs": [
        {
          "internalType": "address",
          "name": "",
          "type": "address"
        }
      ],
      "stateMutability": "view",
      "type": "function",
      "constant": true
    },
    {
      "inputs": [
        {
          "internalType": "address",
          "name": "newOwner",
          "type": "address"
        }
      ],
      "name": "transferOwnership",
      "outputs": [],
      "stateMutability": "nonpayable",
      "type": "function"
    }
  ],
  "bytecode": "0x608060405234801561001057600080fd5b50336000806101000a81548173ffffffffffffffffffffffffffffffffffffffff021916908373ffffffffffffffffffffffffffffffffffffffff160217905550610954806100606000396000f3fe608060405234801561001057600080fd5b506004361061007d5760003560e01c80638da5cb5b1161005b5780638da5cb5b14610100578063b99ef1fa1461011e578063f2fde38b1461014e578063fc36e15b1461016a5761007d565b806309eef43e146100825780630ee2cb10146100b2578063805265e5146100d0575b600080fd5b61009c600480360381019061009791906104c0565b610186565b6040516100a99190610508565b60405180910390f35b6100ba6101a6565b6040516100c79190610532565b60405180910390f35b6100ea60048036038101906100e59190610693565b6101cf565b6040516100f791906106f5565b60405180910390f35b6101086101f7565b6040516101159190610532565b60405180910390f35b61013860048036038101906101339190610693565b61021b565b60405161014591906106f5565b60405180910390f35b610168600480360381019061016391906104c0565b610249565b005b610184600480360381019061017f9190610693565b610389565b005b60016020528060005260406000206000915054906101000a900460ff1681565b60008060009054906101000a900473ffffffffffffffffffffffffffffffffffffffff16905090565b60006002826040516101e19190610781565b9081526020016040518091039020549050919050565b60008054906101000a900473ffffffffffffffffffffffffffffffffffffffff1681565b6002818051602081018201805184825260208301602085012081835280955050505050506000915090505481565b60008054906101000a900473ffffffffffffffffffffffffffffffffffffffff1673ffffffffffffffffffffffffffffffffffffffff163373ffffffffffffffffffffffffffffffffffffffff16146102d7576040517f08c379a00000000000000000000000000000000000000000000000000000000081526004016102ce9061081b565b60405180910390fd5b600073ffffffffffffffffffffffffffffffffffffffff168173ffffffffffffffffffffffffffffffffffffffff1603610346576040517f08c379a000000000000000000000000000000000000000000000000000000000815260040161033d90610887565b60405180910390fd5b806000806101000a81548173ffffffffffffffffffffffffffffffffffffffff021916908373ffffffffffffffffffffffffffffffffffffffff16021790555050565b60008054906101000a900473ffffffffffffffffffffffffffffffffffffffff1673ffffffffffffffffffffffffffffffffffffffff163373ffffffffffffffffffffffffffffffffffffffff1614610417576040517f08c379a000000000000000000000000000000000000000000000000000000000815260040161040e9061081b565b60405180910390fd5b6002816040516104279190610781565b90815260200160405180910390206000815480929190610446906108d6565b919050555050565b6000604051905090565b600080fd5b600080fd5b600073ffffffffffffffffffffffffffffffffffffffff82169050919050565b600061048d82610462565b9050919050565b61049d81610482565b81146104a857600080fd5b50565b6000813590506104ba81610494565b92915050565b6000602082840312156104d6576104d5610458565b5b60006104e4848285016104ab565b91505092915050565b60008115159050919050565b610502816104ed565b82525050565b600060208201905061051d60008301846104f9565b92915050565b61052c81610482565b82525050565b60006020820190506105476000830184610523565b92915050565b600080fd5b600080fd5b6000601f19601f8301169050919050565b7f4e487b7100000000000000000000000000000000000000000000000000000000600052604160045260246000fd5b6105a082610557565b810181811067ffffffffffffffff821117156105bf576105be610568565b5b80604052505050565b60006105d261044e565b90506105de8282610597565b919050565b600067ffffffffffffffff8211156105fe576105fd610568565b5b61060782610557565b9050602081019050919050565b82818337600083830152505050565b6000610636610631846105e3565b6105c8565b90508281526020810184848401111561065257610651610552565b5b61065d848285610614565b509392505050565b600082601f83011261067a5761067961054d565b5b813561068a848260208601610623565b91505092915050565b6000602082840312156106a9576106a8610458565b5b600082013567ffffffffffffffff8111156106c7576106c661045d565b5b6106d384828501610665565b91505092915050565b6000819050919050565b6106ef816106dc565b82525050565b600060208201905061070a60008301846106e6565b92915050565b600081519050919050565b600081905092915050565b60005b83811015610744578082015181840152602081019050610729565b60008484015250505050565b600061075b82610710565b610765818561071b565b9350610775818560208601610726565b80840191505092915050565b600061078d8284610750565b915081905092915050565b600082825260208201905092915050565b7f4e6f207469656e6573207065726d69736f2070617261207265616c697a61722060008201527f6573746120616363696f6e2e0000000000000000000000000000000000000000602082015250565b6000610805602c83610798565b9150610810826107a9565b604082019050919050565b60006020820190508181036000830152610834816107f8565b9050919050565b7f446972656363696f6e20696e76616c6964612e00000000000000000000000000600082015250565b6000610871601383610798565b915061087c8261083b565b602082019050919050565b600060208201905081810360008301526108a081610864565b9050919050565b7f4e487b7100000000000000000000000000000000000000000000000000000000600052601160045260246000fd5b60006108e1826106dc565b91507fffffffffffffffffffffffffffffffffffffffffffffffffffffffffffffffff8203610913576109126108a7565b5b60018201905091905056fea26469706673582212206b6fc27d517cdbea109454e5bd209f357bb2216582f4422744fafb828d116cb864736f6c63430008130033",
  "immutableReferences": {},
  "source": "// SPDX-License-Identifier: MIT\r\npragma solidity ^0.8.19;\r\n\r\ncontract VoteContract {\r\n    address public owner; // Variable para almacenar la direccin del propietario\r\n    mapping(address => bool) public hasVoted;\r\n    mapping(string => uint) public votes;\r\n\r\n    // Modificador que restringe el acceso a solo el propietario\r\n    modifier onlyOwner() {\r\n        require(\r\n            msg.sender == owner,\r\n            \"No tienes permiso para realizar esta accion.\"\r\n        );\r\n        _;\r\n    }\r\n\r\n    // Constructor que asigna la cuenta que despliega el contrato como owner\r\n    constructor() {\r\n        owner = msg.sender;\r\n    }\r\n\r\n    // Funcin para votar, accesible solo para el propietario\r\n    function vote(string memory candidate) public onlyOwner {\r\n        votes[candidate]++;\r\n    }\r\n\r\n    // Funcin para obtener los votos de un candidato\r\n    function getVotes(string memory candidate) public view returns (uint) {\r\n        return votes[candidate];\r\n    }\r\n\r\n    // Funcin para obtener la direccin del creador del contrato\r\n    function getCreator() public view returns (address) {\r\n        return owner;\r\n    }\r\n\r\n    // Funcin para retirar la propiedad (opcional)\r\n    function transferOwnership(address newOwner) public onlyOwner {\r\n        require(newOwner != address(0), \"Direccion invalida.\");\r\n        owner = newOwner;\r\n    }\r\n}\r\n",
  "sourcePath": "/contracts/VoteContract.sol",
  "compiler": {
    "name": "solc",
    "version": "0.8.19+commit.7dd6d404.Emscripten.clang"
  },
  "schemaVersion": "3.4.16",
  "updatedAt": "2024-11-12T13:44:46.633Z",
  "networkType": "ethereum",
  "devdoc": {
    "kind": "dev",
    "methods": {},
    "version": 1
  },
  "userdoc": {
    "kind": "user",
    "methods": {},
    "version": 1
  }
}